{
  "contractName": "Beta",
  "abi": [
    {
      "inputs": [],
      "stateMutability": "nonpayable",
      "type": "constructor"
    },
    {
      "anonymous": false,
      "inputs": [
        {
          "indexed": true,
          "internalType": "address",
          "name": "owner",
          "type": "address"
        },
        {
          "indexed": true,
          "internalType": "address",
          "name": "spender",
          "type": "address"
        },
        {
          "indexed": false,
          "internalType": "uint256",
          "name": "value",
          "type": "uint256"
        }
      ],
      "name": "Approval",
      "type": "event"
    },
    {
      "anonymous": false,
      "inputs": [
        {
          "indexed": true,
          "internalType": "address",
          "name": "delegator",
          "type": "address"
        },
        {
          "indexed": true,
          "internalType": "address",
          "name": "fromDelegate",
          "type": "address"
        },
        {
          "indexed": true,
          "internalType": "address",
          "name": "toDelegate",
          "type": "address"
        }
      ],
      "name": "DelegateChanged",
      "type": "event"
    },
    {
      "anonymous": false,
      "inputs": [
        {
          "indexed": true,
          "internalType": "address",
          "name": "delegate",
          "type": "address"
        },
        {
          "indexed": false,
          "internalType": "uint256",
          "name": "previousBalance",
          "type": "uint256"
        },
        {
          "indexed": false,
          "internalType": "uint256",
          "name": "newBalance",
          "type": "uint256"
        }
      ],
      "name": "DelegateVotesChanged",
      "type": "event"
    },
    {
      "anonymous": false,
      "inputs": [
        {
          "indexed": true,
          "internalType": "address",
          "name": "previousOwner",
          "type": "address"
        },
        {
          "indexed": true,
          "internalType": "address",
          "name": "newOwner",
          "type": "address"
        }
      ],
      "name": "OwnershipTransferred",
      "type": "event"
    },
    {
      "anonymous": false,
      "inputs": [
        {
          "indexed": false,
          "internalType": "address",
          "name": "account",
          "type": "address"
        }
      ],
      "name": "Paused",
      "type": "event"
    },
    {
      "anonymous": false,
      "inputs": [
        {
          "indexed": true,
          "internalType": "address",
          "name": "from",
          "type": "address"
        },
        {
          "indexed": true,
          "internalType": "address",
          "name": "to",
          "type": "address"
        },
        {
          "indexed": false,
          "internalType": "uint256",
          "name": "value",
          "type": "uint256"
        }
      ],
      "name": "Transfer",
      "type": "event"
    },
    {
      "anonymous": false,
      "inputs": [
        {
          "indexed": false,
          "internalType": "address",
          "name": "account",
          "type": "address"
        }
      ],
      "name": "Unpaused",
      "type": "event"
    },
    {
      "inputs": [],
      "name": "DOMAIN_SEPARATOR",
      "outputs": [
        {
          "internalType": "bytes32",
          "name": "",
          "type": "bytes32"
        }
      ],
      "stateMutability": "view",
      "type": "function"
    },
    {
      "inputs": [
        {
          "internalType": "address",
          "name": "owner",
          "type": "address"
        },
        {
          "internalType": "address",
          "name": "spender",
          "type": "address"
        }
      ],
      "name": "allowance",
      "outputs": [
        {
          "internalType": "uint256",
          "name": "",
          "type": "uint256"
        }
      ],
      "stateMutability": "view",
      "type": "function"
    },
    {
      "inputs": [
        {
          "internalType": "address",
          "name": "spender",
          "type": "address"
        },
        {
          "internalType": "uint256",
          "name": "amount",
          "type": "uint256"
        }
      ],
      "name": "approve",
      "outputs": [
        {
          "internalType": "bool",
          "name": "",
          "type": "bool"
        }
      ],
      "stateMutability": "nonpayable",
      "type": "function"
    },
    {
      "inputs": [
        {
          "internalType": "address",
          "name": "account",
          "type": "address"
        }
      ],
      "name": "balanceOf",
      "outputs": [
        {
          "internalType": "uint256",
          "name": "",
          "type": "uint256"
        }
      ],
      "stateMutability": "view",
      "type": "function"
    },
    {
      "inputs": [
        {
          "internalType": "uint256",
          "name": "amount",
          "type": "uint256"
        }
      ],
      "name": "burn",
      "outputs": [],
      "stateMutability": "nonpayable",
      "type": "function"
    },
    {
      "inputs": [
        {
          "internalType": "address",
          "name": "account",
          "type": "address"
        },
        {
          "internalType": "uint256",
          "name": "amount",
          "type": "uint256"
        }
      ],
      "name": "burnFrom",
      "outputs": [],
      "stateMutability": "nonpayable",
      "type": "function"
    },
    {
      "inputs": [
        {
          "internalType": "address",
          "name": "account",
          "type": "address"
        },
        {
          "internalType": "uint32",
          "name": "pos",
          "type": "uint32"
        }
      ],
      "name": "checkpoints",
      "outputs": [
        {
          "components": [
            {
              "internalType": "uint32",
              "name": "fromBlock",
              "type": "uint32"
            },
            {
              "internalType": "uint224",
              "name": "votes",
              "type": "uint224"
            }
          ],
          "internalType": "struct ERC20Votes.Checkpoint",
          "name": "",
          "type": "tuple"
        }
      ],
      "stateMutability": "view",
      "type": "function"
    },
    {
      "inputs": [],
      "name": "decimals",
      "outputs": [
        {
          "internalType": "uint8",
          "name": "",
          "type": "uint8"
        }
      ],
      "stateMutability": "view",
      "type": "function"
    },
    {
      "inputs": [
        {
          "internalType": "address",
          "name": "spender",
          "type": "address"
        },
        {
          "internalType": "uint256",
          "name": "subtractedValue",
          "type": "uint256"
        }
      ],
      "name": "decreaseAllowance",
      "outputs": [
        {
          "internalType": "bool",
          "name": "",
          "type": "bool"
        }
      ],
      "stateMutability": "nonpayable",
      "type": "function"
    },
    {
      "inputs": [
        {
          "internalType": "address",
          "name": "delegatee",
          "type": "address"
        }
      ],
      "name": "delegate",
      "outputs": [],
      "stateMutability": "nonpayable",
      "type": "function"
    },
    {
      "inputs": [
        {
          "internalType": "address",
          "name": "delegatee",
          "type": "address"
        },
        {
          "internalType": "uint256",
          "name": "nonce",
          "type": "uint256"
        },
        {
          "internalType": "uint256",
          "name": "expiry",
          "type": "uint256"
        },
        {
          "internalType": "uint8",
          "name": "v",
          "type": "uint8"
        },
        {
          "internalType": "bytes32",
          "name": "r",
          "type": "bytes32"
        },
        {
          "internalType": "bytes32",
          "name": "s",
          "type": "bytes32"
        }
      ],
      "name": "delegateBySig",
      "outputs": [],
      "stateMutability": "nonpayable",
      "type": "function"
    },
    {
      "inputs": [
        {
          "internalType": "address",
          "name": "account",
          "type": "address"
        }
      ],
      "name": "delegates",
      "outputs": [
        {
          "internalType": "address",
          "name": "",
          "type": "address"
        }
      ],
      "stateMutability": "view",
      "type": "function"
    },
    {
      "inputs": [
        {
          "internalType": "uint256",
          "name": "blockNumber",
          "type": "uint256"
        }
      ],
      "name": "getPastTotalSupply",
      "outputs": [
        {
          "internalType": "uint256",
          "name": "",
          "type": "uint256"
        }
      ],
      "stateMutability": "view",
      "type": "function"
    },
    {
      "inputs": [
        {
          "internalType": "address",
          "name": "account",
          "type": "address"
        },
        {
          "internalType": "uint256",
          "name": "blockNumber",
          "type": "uint256"
        }
      ],
      "name": "getPastVotes",
      "outputs": [
        {
          "internalType": "uint256",
          "name": "",
          "type": "uint256"
        }
      ],
      "stateMutability": "view",
      "type": "function"
    },
    {
      "inputs": [
        {
          "internalType": "address",
          "name": "account",
          "type": "address"
        }
      ],
      "name": "getVotes",
      "outputs": [
        {
          "internalType": "uint256",
          "name": "",
          "type": "uint256"
        }
      ],
      "stateMutability": "view",
      "type": "function"
    },
    {
      "inputs": [
        {
          "internalType": "address",
          "name": "spender",
          "type": "address"
        },
        {
          "internalType": "uint256",
          "name": "addedValue",
          "type": "uint256"
        }
      ],
      "name": "increaseAllowance",
      "outputs": [
        {
          "internalType": "bool",
          "name": "",
          "type": "bool"
        }
      ],
      "stateMutability": "nonpayable",
      "type": "function"
    },
    {
      "inputs": [],
      "name": "name",
      "outputs": [
        {
          "internalType": "string",
          "name": "",
          "type": "string"
        }
      ],
      "stateMutability": "view",
      "type": "function"
    },
    {
      "inputs": [
        {
          "internalType": "address",
          "name": "owner",
          "type": "address"
        }
      ],
      "name": "nonces",
      "outputs": [
        {
          "internalType": "uint256",
          "name": "",
          "type": "uint256"
        }
      ],
      "stateMutability": "view",
      "type": "function"
    },
    {
      "inputs": [
        {
          "internalType": "address",
          "name": "account",
          "type": "address"
        }
      ],
      "name": "numCheckpoints",
      "outputs": [
        {
          "internalType": "uint32",
          "name": "",
          "type": "uint32"
        }
      ],
      "stateMutability": "view",
      "type": "function"
    },
    {
      "inputs": [],
      "name": "owner",
      "outputs": [
        {
          "internalType": "address",
          "name": "",
          "type": "address"
        }
      ],
      "stateMutability": "view",
      "type": "function"
    },
    {
      "inputs": [],
      "name": "paused",
      "outputs": [
        {
          "internalType": "bool",
          "name": "",
          "type": "bool"
        }
      ],
      "stateMutability": "view",
      "type": "function"
    },
    {
      "inputs": [
        {
          "internalType": "address",
          "name": "owner",
          "type": "address"
        },
        {
          "internalType": "address",
          "name": "spender",
          "type": "address"
        },
        {
          "internalType": "uint256",
          "name": "value",
          "type": "uint256"
        },
        {
          "internalType": "uint256",
          "name": "deadline",
          "type": "uint256"
        },
        {
          "internalType": "uint8",
          "name": "v",
          "type": "uint8"
        },
        {
          "internalType": "bytes32",
          "name": "r",
          "type": "bytes32"
        },
        {
          "internalType": "bytes32",
          "name": "s",
          "type": "bytes32"
        }
      ],
      "name": "permit",
      "outputs": [],
      "stateMutability": "nonpayable",
      "type": "function"
    },
    {
      "inputs": [],
      "name": "renounceOwnership",
      "outputs": [],
      "stateMutability": "nonpayable",
      "type": "function"
    },
    {
      "inputs": [],
      "name": "symbol",
      "outputs": [
        {
          "internalType": "string",
          "name": "",
          "type": "string"
        }
      ],
      "stateMutability": "view",
      "type": "function"
    },
    {
      "inputs": [],
      "name": "totalSupply",
      "outputs": [
        {
          "internalType": "uint256",
          "name": "",
          "type": "uint256"
        }
      ],
      "stateMutability": "view",
      "type": "function"
    },
    {
      "inputs": [
        {
          "internalType": "address",
          "name": "to",
          "type": "address"
        },
        {
          "internalType": "uint256",
          "name": "amount",
          "type": "uint256"
        }
      ],
      "name": "transfer",
      "outputs": [
        {
          "internalType": "bool",
          "name": "",
          "type": "bool"
        }
      ],
      "stateMutability": "nonpayable",
      "type": "function"
    },
    {
      "inputs": [
        {
          "internalType": "address",
          "name": "from",
          "type": "address"
        },
        {
          "internalType": "address",
          "name": "to",
          "type": "address"
        },
        {
          "internalType": "uint256",
          "name": "amount",
          "type": "uint256"
        }
      ],
      "name": "transferFrom",
      "outputs": [
        {
          "internalType": "bool",
          "name": "",
          "type": "bool"
        }
      ],
      "stateMutability": "nonpayable",
      "type": "function"
    },
    {
      "inputs": [
        {
          "internalType": "address",
          "name": "newOwner",
          "type": "address"
        }
      ],
      "name": "transferOwnership",
      "outputs": [],
      "stateMutability": "nonpayable",
      "type": "function"
    },
    {
      "inputs": [],
      "name": "pause",
      "outputs": [],
      "stateMutability": "nonpayable",
      "type": "function"
    },
    {
      "inputs": [],
      "name": "unpause",
      "outputs": [],
      "stateMutability": "nonpayable",
      "type": "function"
    },
    {
      "inputs": [
        {
          "internalType": "address",
          "name": "to",
          "type": "address"
        },
        {
          "internalType": "uint256",
          "name": "amount",
          "type": "uint256"
        }
      ],
      "name": "mint",
      "outputs": [],
      "stateMutability": "nonpayable",
      "type": "function"
    }
  ],
  "bytecode": "0x6101606040527f6e71edae12b1b97f4d1f60370fef10105fa2faae0126114a169c64845d6126c9610140908152503480156200003a57600080fd5b506040518060400160405280600981526020017f5465737420426574610000000000000000000000000000000000000000000000815250806040518060400160405280600181526020017f31000000000000000000000000000000000000000000000000000000000000008152506040518060400160405280600981526020017f54657374204265746100000000000000000000000000000000000000000000008152506040518060400160405280600481526020017f424554410000000000000000000000000000000000000000000000000000000081525081600390805190602001906200012c92919062000346565b5080600490805190602001906200014592919062000346565b5050506000600560006101000a81548160ff02191690831515021790555062000183620001776200023c60201b60201c565b6200024460201b60201c565b60008280519060200120905060008280519060200120905060007f8b73c3c69bb8fe3d512ecc4cf759cc79239f7b179b0ffacaa9a75d522b39400f90508260e081815250508161010081815250504660a08181525050620001ec8184846200030a60201b60201c565b608081815250503073ffffffffffffffffffffffffffffffffffffffff1660c08173ffffffffffffffffffffffffffffffffffffffff168152505080610120818152505050505050505062000533565b600033905090565b6000600560019054906101000a900473ffffffffffffffffffffffffffffffffffffffff16905081600560016101000a81548173ffffffffffffffffffffffffffffffffffffffff021916908373ffffffffffffffffffffffffffffffffffffffff1602179055508173ffffffffffffffffffffffffffffffffffffffff168173ffffffffffffffffffffffffffffffffffffffff167f8be0079c531659141344cd1fd0a4f28419497f9722a3daafe3b4186f6b6457e060405160405180910390a35050565b600083838346306040516020016200032795949392919062000471565b6040516020818303038152906040528051906020012090509392505050565b8280546200035490620004fd565b90600052602060002090601f016020900481019282620003785760008555620003c4565b82601f106200039357805160ff1916838001178555620003c4565b82800160010185558215620003c4579182015b82811115620003c3578251825591602001919060010190620003a6565b5b509050620003d39190620003d7565b5090565b5b80821115620003f2576000816000905550600101620003d8565b5090565b6000819050919050565b6200040b81620003f6565b82525050565b6000819050919050565b620004268162000411565b82525050565b600073ffffffffffffffffffffffffffffffffffffffff82169050919050565b600062000459826200042c565b9050919050565b6200046b816200044c565b82525050565b600060a08201905062000488600083018862000400565b62000497602083018762000400565b620004a6604083018662000400565b620004b560608301856200041b565b620004c4608083018462000460565b9695505050505050565b7f4e487b7100000000000000000000000000000000000000000000000000000000600052602260045260246000fd5b600060028204905060018216806200051657607f821691505b602082108114156200052d576200052c620004ce565b5b50919050565b60805160a05160c05160e05161010051610120516101405161447b6200058e60003960006110cf015260006119e701526000611a2901526000611a080152600061193d01526000611993015260006119bc015261447b6000f3fe608060405234801561001057600080fd5b50600436106101e55760003560e01c806370a082311161010f5780639ab24eb0116100a2578063d505accf11610071578063d505accf146105a6578063dd62ed3e146105c2578063f1127ed8146105f2578063f2fde38b14610622576101e5565b80639ab24eb0146104fa578063a457c2d71461052a578063a9059cbb1461055a578063c3cda5201461058a576101e5565b80638456cb59116100de5780638456cb59146104845780638da5cb5b1461048e5780638e539e8c146104ac57806395d89b41146104dc576101e5565b806370a08231146103fe578063715018a61461042e57806379cc6790146104385780637ecebe0014610454576101e5565b80633a46b1a811610187578063587cde1e11610156578063587cde1e146103645780635c19a95c146103945780635c975abb146103b05780636fcfff45146103ce576101e5565b80633a46b1a8146102f25780633f4ba83a1461032257806340c10f191461032c57806342966c6814610348576101e5565b806323b872dd116101c357806323b872dd14610256578063313ce567146102865780633644e515146102a457806339509351146102c2576101e5565b806306fdde03146101ea578063095ea7b31461020857806318160ddd14610238575b600080fd5b6101f261063e565b6040516101ff9190612db1565b60405180910390f35b610222600480360381019061021d9190612e6c565b6106d0565b60405161022f9190612ec7565b60405180910390f35b6102406106f3565b60405161024d9190612ef1565b60405180910390f35b610270600480360381019061026b9190612f0c565b6106fd565b60405161027d9190612ec7565b60405180910390f35b61028e61072c565b60405161029b9190612f7b565b60405180910390f35b6102ac610735565b6040516102b99190612faf565b60405180910390f35b6102dc60048036038101906102d79190612e6c565b610744565b6040516102e99190612ec7565b60405180910390f35b61030c60048036038101906103079190612e6c565b6107ee565b6040516103199190612ef1565b60405180910390f35b61032a610882565b005b61034660048036038101906103419190612e6c565b610908565b005b610362600480360381019061035d9190612fca565b610992565b005b61037e60048036038101906103799190612ff7565b6109a6565b60405161038b9190613033565b60405180910390f35b6103ae60048036038101906103a99190612ff7565b610a0f565b005b6103b8610a23565b6040516103c59190612ec7565b60405180910390f35b6103e860048036038101906103e39190612ff7565b610a3a565b6040516103f5919061306d565b60405180910390f35b61041860048036038101906104139190612ff7565b610a8e565b6040516104259190612ef1565b60405180910390f35b610436610ad6565b005b610452600480360381019061044d9190612e6c565b610b5e565b005b61046e60048036038101906104699190612ff7565b610b7e565b60405161047b9190612ef1565b60405180910390f35b61048c610bce565b005b610496610c54565b6040516104a39190613033565b60405180910390f35b6104c660048036038101906104c19190612fca565b610c7e565b6040516104d39190612ef1565b60405180910390f35b6104e4610cd4565b6040516104f19190612db1565b60405180910390f35b610514600480360381019061050f9190612ff7565b610d66565b6040516105219190612ef1565b60405180910390f35b610544600480360381019061053f9190612e6c565b610e77565b6040516105519190612ec7565b60405180910390f35b610574600480360381019061056f9190612e6c565b610f61565b6040516105819190612ec7565b60405180910390f35b6105a4600480360381019061059f91906130e0565b610f84565b005b6105c060048036038101906105bb919061316d565b611088565b005b6105dc60048036038101906105d7919061320f565b6111ca565b6040516105e99190612ef1565b60405180910390f35b61060c6004803603810190610607919061327b565b611251565b6040516106199190613330565b60405180910390f35b61063c60048036038101906106379190612ff7565b611361565b005b60606003805461064d9061337a565b80601f01602080910402602001604051908101604052809291908181526020018280546106799061337a565b80156106c65780601f1061069b576101008083540402835291602001916106c6565b820191906000526020600020905b8154815290600101906020018083116106a957829003601f168201915b5050505050905090565b6000806106db611459565b90506106e8818585611461565b600191505092915050565b6000600254905090565b600080610708611459565b905061071585828561162c565b6107208585856116b8565b60019150509392505050565b60006012905090565b600061073f611939565b905090565b60008061074f611459565b90506107e3818585600160008673ffffffffffffffffffffffffffffffffffffffff1673ffffffffffffffffffffffffffffffffffffffff16815260200190815260200160002060008973ffffffffffffffffffffffffffffffffffffffff1673ffffffffffffffffffffffffffffffffffffffff168152602001908152602001600020546107de91906133db565b611461565b600191505092915050565b6000438210610832576040517f08c379a00000000000000000000000000000000000000000000000000000000081526004016108299061347d565b60405180910390fd5b61087a600860008573ffffffffffffffffffffffffffffffffffffffff1673ffffffffffffffffffffffffffffffffffffffff16815260200190815260200160002083611a53565b905092915050565b61088a611459565b73ffffffffffffffffffffffffffffffffffffffff166108a8610c54565b73ffffffffffffffffffffffffffffffffffffffff16146108fe576040517f08c379a00000000000000000000000000000000000000000000000000000000081526004016108f5906134e9565b60405180910390fd5b610906611b5f565b565b610910611459565b73ffffffffffffffffffffffffffffffffffffffff1661092e610c54565b73ffffffffffffffffffffffffffffffffffffffff1614610984576040517f08c379a000000000000000000000000000000000000000000000000000000000815260040161097b906134e9565b60405180910390fd5b61098e8282611c01565b5050565b6109a361099d611459565b82611c0f565b50565b6000600760008373ffffffffffffffffffffffffffffffffffffffff1673ffffffffffffffffffffffffffffffffffffffff16815260200190815260200160002060009054906101000a900473ffffffffffffffffffffffffffffffffffffffff169050919050565b610a20610a1a611459565b82611c1d565b50565b6000600560009054906101000a900460ff16905090565b6000610a87600860008473ffffffffffffffffffffffffffffffffffffffff1673ffffffffffffffffffffffffffffffffffffffff16815260200190815260200160002080549050611d37565b9050919050565b60008060008373ffffffffffffffffffffffffffffffffffffffff1673ffffffffffffffffffffffffffffffffffffffff168152602001908152602001600020549050919050565b610ade611459565b73ffffffffffffffffffffffffffffffffffffffff16610afc610c54565b73ffffffffffffffffffffffffffffffffffffffff1614610b52576040517f08c379a0000000000000000000000000000000000000000000000000000000008152600401610b49906134e9565b60405180910390fd5b610b5c6000611d8a565b565b610b7082610b6a611459565b8361162c565b610b7a8282611c0f565b5050565b6000610bc7600660008473ffffffffffffffffffffffffffffffffffffffff1673ffffffffffffffffffffffffffffffffffffffff168152602001908152602001600020611e50565b9050919050565b610bd6611459565b73ffffffffffffffffffffffffffffffffffffffff16610bf4610c54565b73ffffffffffffffffffffffffffffffffffffffff1614610c4a576040517f08c379a0000000000000000000000000000000000000000000000000000000008152600401610c41906134e9565b60405180910390fd5b610c52611e5e565b565b6000600560019054906101000a900473ffffffffffffffffffffffffffffffffffffffff16905090565b6000438210610cc2576040517f08c379a0000000000000000000000000000000000000000000000000000000008152600401610cb99061347d565b60405180910390fd5b610ccd600983611a53565b9050919050565b606060048054610ce39061337a565b80601f0160208091040260200160405190810160405280929190818152602001828054610d0f9061337a565b8015610d5c5780601f10610d3157610100808354040283529160200191610d5c565b820191906000526020600020905b815481529060010190602001808311610d3f57829003601f168201915b5050505050905090565b600080600860008473ffffffffffffffffffffffffffffffffffffffff1673ffffffffffffffffffffffffffffffffffffffff16815260200190815260200160002080549050905060008114610e4e57600860008473ffffffffffffffffffffffffffffffffffffffff1673ffffffffffffffffffffffffffffffffffffffff168152602001908152602001600020600182610e029190613509565b81548110610e1357610e1261353d565b5b9060005260206000200160000160049054906101000a90047bffffffffffffffffffffffffffffffffffffffffffffffffffffffff16610e51565b60005b7bffffffffffffffffffffffffffffffffffffffffffffffffffffffff16915050919050565b600080610e82611459565b90506000600160008373ffffffffffffffffffffffffffffffffffffffff1673ffffffffffffffffffffffffffffffffffffffff16815260200190815260200160002060008673ffffffffffffffffffffffffffffffffffffffff1673ffffffffffffffffffffffffffffffffffffffff16815260200190815260200160002054905083811015610f48576040517f08c379a0000000000000000000000000000000000000000000000000000000008152600401610f3f906135de565b60405180910390fd5b610f558286868403611461565b60019250505092915050565b600080610f6c611459565b9050610f798185856116b8565b600191505092915050565b83421115610fc7576040517f08c379a0000000000000000000000000000000000000000000000000000000008152600401610fbe9061364a565b60405180910390fd5b60006110296110217fe48329057bfd03d55e49b547132e39cffd9c1820ad7b9d4c5307691425d15adf898989604051602001611006949392919061366a565b60405160208183030381529060405280519060200120611f01565b858585611f1b565b905061103481611f46565b8614611075576040517f08c379a000000000000000000000000000000000000000000000000000000000815260040161106c906136fb565b60405180910390fd5b61107f8188611c1d565b50505050505050565b834211156110cb576040517f08c379a00000000000000000000000000000000000000000000000000000000081526004016110c290613767565b60405180910390fd5b60007f00000000000000000000000000000000000000000000000000000000000000008888886110fa8c611f46565b8960405160200161111096959493929190613787565b604051602081830303815290604052805190602001209050600061113382611f01565b9050600061114382878787611f1b565b90508973ffffffffffffffffffffffffffffffffffffffff168173ffffffffffffffffffffffffffffffffffffffff16146111b3576040517f08c379a00000000000000000000000000000000000000000000000000000000081526004016111aa90613834565b60405180910390fd5b6111be8a8a8a611461565b50505050505050505050565b6000600160008473ffffffffffffffffffffffffffffffffffffffff1673ffffffffffffffffffffffffffffffffffffffff16815260200190815260200160002060008373ffffffffffffffffffffffffffffffffffffffff1673ffffffffffffffffffffffffffffffffffffffff16815260200190815260200160002054905092915050565b611259612cda565b600860008473ffffffffffffffffffffffffffffffffffffffff1673ffffffffffffffffffffffffffffffffffffffff1681526020019081526020016000208263ffffffff16815481106112b0576112af61353d565b5b906000526020600020016040518060400160405290816000820160009054906101000a900463ffffffff1663ffffffff1663ffffffff1681526020016000820160049054906101000a90047bffffffffffffffffffffffffffffffffffffffffffffffffffffffff167bffffffffffffffffffffffffffffffffffffffffffffffffffffffff167bffffffffffffffffffffffffffffffffffffffffffffffffffffffff1681525050905092915050565b611369611459565b73ffffffffffffffffffffffffffffffffffffffff16611387610c54565b73ffffffffffffffffffffffffffffffffffffffff16146113dd576040517f08c379a00000000000000000000000000000000000000000000000000000000081526004016113d4906134e9565b60405180910390fd5b600073ffffffffffffffffffffffffffffffffffffffff168173ffffffffffffffffffffffffffffffffffffffff16141561144d576040517f08c379a0000000000000000000000000000000000000000000000000000000008152600401611444906138c6565b60405180910390fd5b61145681611d8a565b50565b600033905090565b600073ffffffffffffffffffffffffffffffffffffffff168373ffffffffffffffffffffffffffffffffffffffff1614156114d1576040517f08c379a00000000000000000000000000000000000000000000000000000000081526004016114c890613958565b60405180910390fd5b600073ffffffffffffffffffffffffffffffffffffffff168273ffffffffffffffffffffffffffffffffffffffff161415611541576040517f08c379a0000000000000000000000000000000000000000000000000000000008152600401611538906139ea565b60405180910390fd5b80600160008573ffffffffffffffffffffffffffffffffffffffff1673ffffffffffffffffffffffffffffffffffffffff16815260200190815260200160002060008473ffffffffffffffffffffffffffffffffffffffff1673ffffffffffffffffffffffffffffffffffffffff168152602001908152602001600020819055508173ffffffffffffffffffffffffffffffffffffffff168373ffffffffffffffffffffffffffffffffffffffff167f8c5be1e5ebec7d5bd14f71427d1e84f3dd0314c0f7b2291e5b200ac8c7c3b9258360405161161f9190612ef1565b60405180910390a3505050565b600061163884846111ca565b90507fffffffffffffffffffffffffffffffffffffffffffffffffffffffffffffffff81146116b257818110156116a4576040517f08c379a000000000000000000000000000000000000000000000000000000000815260040161169b90613a56565b60405180910390fd5b6116b18484848403611461565b5b50505050565b600073ffffffffffffffffffffffffffffffffffffffff168373ffffffffffffffffffffffffffffffffffffffff161415611728576040517f08c379a000000000000000000000000000000000000000000000000000000000815260040161171f90613ae8565b60405180910390fd5b600073ffffffffffffffffffffffffffffffffffffffff168273ffffffffffffffffffffffffffffffffffffffff161415611798576040517f08c379a000000000000000000000000000000000000000000000000000000000815260040161178f90613b7a565b60405180910390fd5b6117a3838383611fa4565b60008060008573ffffffffffffffffffffffffffffffffffffffff1673ffffffffffffffffffffffffffffffffffffffff16815260200190815260200160002054905081811015611829576040517f08c379a000000000000000000000000000000000000000000000000000000000815260040161182090613c0c565b60405180910390fd5b8181036000808673ffffffffffffffffffffffffffffffffffffffff1673ffffffffffffffffffffffffffffffffffffffff16815260200190815260200160002081905550816000808573ffffffffffffffffffffffffffffffffffffffff1673ffffffffffffffffffffffffffffffffffffffff16815260200190815260200160002060008282546118bc91906133db565b925050819055508273ffffffffffffffffffffffffffffffffffffffff168473ffffffffffffffffffffffffffffffffffffffff167fddf252ad1be2c89b69c2b068fc378daa952ba7f163c4a11628f55a4df523b3ef846040516119209190612ef1565b60405180910390a3611933848484611ffc565b50505050565b60007f000000000000000000000000000000000000000000000000000000000000000073ffffffffffffffffffffffffffffffffffffffff163073ffffffffffffffffffffffffffffffffffffffff161480156119b557507f000000000000000000000000000000000000000000000000000000000000000046145b156119e2577f00000000000000000000000000000000000000000000000000000000000000009050611a50565b611a4d7f00000000000000000000000000000000000000000000000000000000000000007f00000000000000000000000000000000000000000000000000000000000000007f000000000000000000000000000000000000000000000000000000000000000061200c565b90505b90565b6000808380549050905060005b81811015611ad2576000611a748284612046565b905084868281548110611a8a57611a8961353d565b5b9060005260206000200160000160009054906101000a900463ffffffff1663ffffffff161115611abc57809250611acc565b600181611ac991906133db565b91505b50611a60565b60008214611b345784600183611ae89190613509565b81548110611af957611af861353d565b5b9060005260206000200160000160049054906101000a90047bffffffffffffffffffffffffffffffffffffffffffffffffffffffff16611b37565b60005b7bffffffffffffffffffffffffffffffffffffffffffffffffffffffff169250505092915050565b611b67610a23565b611ba6576040517f08c379a0000000000000000000000000000000000000000000000000000000008152600401611b9d90613c78565b60405180910390fd5b6000600560006101000a81548160ff0219169083151502179055507f5db9ee0a495bf2e6ff9c91a7834c1ba4fdd244a5e8aa4e537bd38aeae4b073aa611bea611459565b604051611bf79190613033565b60405180910390a1565b611c0b828261206c565b5050565b611c1982826120f9565b5050565b6000611c28836109a6565b90506000611c3584610a8e565b905082600760008673ffffffffffffffffffffffffffffffffffffffff1673ffffffffffffffffffffffffffffffffffffffff16815260200190815260200160002060006101000a81548173ffffffffffffffffffffffffffffffffffffffff021916908373ffffffffffffffffffffffffffffffffffffffff1602179055508273ffffffffffffffffffffffffffffffffffffffff168273ffffffffffffffffffffffffffffffffffffffff168573ffffffffffffffffffffffffffffffffffffffff167f3134e8a2e6d97e929a7e54011ea5485d7d196dd5f0ba4d4ef95803e8e3fc257f60405160405180910390a4611d31828483612117565b50505050565b600063ffffffff8016821115611d82576040517f08c379a0000000000000000000000000000000000000000000000000000000008152600401611d7990613d0a565b60405180910390fd5b819050919050565b6000600560019054906101000a900473ffffffffffffffffffffffffffffffffffffffff16905081600560016101000a81548173ffffffffffffffffffffffffffffffffffffffff021916908373ffffffffffffffffffffffffffffffffffffffff1602179055508173ffffffffffffffffffffffffffffffffffffffff168173ffffffffffffffffffffffffffffffffffffffff167f8be0079c531659141344cd1fd0a4f28419497f9722a3daafe3b4186f6b6457e060405160405180910390a35050565b600081600001549050919050565b611e66610a23565b15611ea6576040517f08c379a0000000000000000000000000000000000000000000000000000000008152600401611e9d90613d76565b60405180910390fd5b6001600560006101000a81548160ff0219169083151502179055507f62e78cea01bee320cd4e420270b5ea74000d11b0c9f74754ebdbfc544b05a258611eea611459565b604051611ef79190613033565b60405180910390a1565b6000611f14611f0e611939565b83612310565b9050919050565b6000806000611f2c87878787612343565b91509150611f3981612450565b8192505050949350505050565b600080600660008473ffffffffffffffffffffffffffffffffffffffff1673ffffffffffffffffffffffffffffffffffffffff1681526020019081526020016000209050611f9381611e50565b9150611f9e81612625565b50919050565b611fac610a23565b15611fec576040517f08c379a0000000000000000000000000000000000000000000000000000000008152600401611fe390613d76565b60405180910390fd5b611ff783838361263b565b505050565b612007838383612640565b505050565b60008383834630604051602001612027959493929190613d96565b6040516020818303038152906040528051906020012090509392505050565b600060028284186120579190613e18565b82841661206491906133db565b905092915050565b612076828261266b565b61207e6127cb565b7bffffffffffffffffffffffffffffffffffffffffffffffffffffffff166120a46106f3565b11156120e5576040517f08c379a00000000000000000000000000000000000000000000000000000000081526004016120dc90613ebb565b60405180910390fd5b6120f360096127ef83612805565b50505050565b6121038282612a7d565b6121116009612c5483612805565b50505050565b8173ffffffffffffffffffffffffffffffffffffffff168373ffffffffffffffffffffffffffffffffffffffff16141580156121535750600081115b1561230b57600073ffffffffffffffffffffffffffffffffffffffff168373ffffffffffffffffffffffffffffffffffffffff1614612231576000806121da600860008773ffffffffffffffffffffffffffffffffffffffff1673ffffffffffffffffffffffffffffffffffffffff168152602001908152602001600020612c5485612805565b915091508473ffffffffffffffffffffffffffffffffffffffff167fdec2bacdd2f05b59de34da9b523dff8be42e5e38e818c82fdb0bae774387a7248383604051612226929190613edb565b60405180910390a250505b600073ffffffffffffffffffffffffffffffffffffffff168273ffffffffffffffffffffffffffffffffffffffff161461230a576000806122b3600860008673ffffffffffffffffffffffffffffffffffffffff1673ffffffffffffffffffffffffffffffffffffffff1681526020019081526020016000206127ef85612805565b915091508373ffffffffffffffffffffffffffffffffffffffff167fdec2bacdd2f05b59de34da9b523dff8be42e5e38e818c82fdb0bae774387a72483836040516122ff929190613edb565b60405180910390a250505b5b505050565b60008282604051602001612325929190613f7c565b60405160208183030381529060405280519060200120905092915050565b6000807f7fffffffffffffffffffffffffffffff5d576e7357a4501ddfe92f46681b20a08360001c111561237e576000600391509150612447565b601b8560ff16141580156123965750601c8560ff1614155b156123a8576000600491509150612447565b6000600187878787604051600081526020016040526040516123cd9493929190613fb3565b6020604051602081039080840390855afa1580156123ef573d6000803e3d6000fd5b505050602060405103519050600073ffffffffffffffffffffffffffffffffffffffff168173ffffffffffffffffffffffffffffffffffffffff16141561243e57600060019250925050612447565b80600092509250505b94509492505050565b6000600481111561246457612463613ff8565b5b81600481111561247757612476613ff8565b5b141561248257612622565b6001600481111561249657612495613ff8565b5b8160048111156124a9576124a8613ff8565b5b14156124ea576040517f08c379a00000000000000000000000000000000000000000000000000000000081526004016124e190614073565b60405180910390fd5b600260048111156124fe576124fd613ff8565b5b81600481111561251157612510613ff8565b5b1415612552576040517f08c379a0000000000000000000000000000000000000000000000000000000008152600401612549906140df565b60405180910390fd5b6003600481111561256657612565613ff8565b5b81600481111561257957612578613ff8565b5b14156125ba576040517f08c379a00000000000000000000000000000000000000000000000000000000081526004016125b190614171565b60405180910390fd5b6004808111156125cd576125cc613ff8565b5b8160048111156125e0576125df613ff8565b5b1415612621576040517f08c379a000000000000000000000000000000000000000000000000000000000815260040161261890614203565b60405180910390fd5b5b50565b6001816000016000828254019250508190555050565b505050565b61264b838383612c6a565b612666612657846109a6565b612660846109a6565b83612117565b505050565b600073ffffffffffffffffffffffffffffffffffffffff168273ffffffffffffffffffffffffffffffffffffffff1614156126db576040517f08c379a00000000000000000000000000000000000000000000000000000000081526004016126d29061426f565b60405180910390fd5b6126e760008383611fa4565b80600260008282546126f991906133db565b92505081905550806000808473ffffffffffffffffffffffffffffffffffffffff1673ffffffffffffffffffffffffffffffffffffffff168152602001908152602001600020600082825461274e91906133db565b925050819055508173ffffffffffffffffffffffffffffffffffffffff16600073ffffffffffffffffffffffffffffffffffffffff167fddf252ad1be2c89b69c2b068fc378daa952ba7f163c4a11628f55a4df523b3ef836040516127b39190612ef1565b60405180910390a36127c760008383611ffc565b5050565b60007bffffffffffffffffffffffffffffffffffffffffffffffffffffffff905090565b600081836127fd91906133db565b905092915050565b6000806000858054905090506000811461287357856001826128279190613509565b815481106128385761283761353d565b5b9060005260206000200160000160049054906101000a90047bffffffffffffffffffffffffffffffffffffffffffffffffffffffff16612876565b60005b7bffffffffffffffffffffffffffffffffffffffffffffffffffffffff1692506128a483858763ffffffff16565b91506000811180156128f7575043866001836128c09190613509565b815481106128d1576128d061353d565b5b9060005260206000200160000160009054906101000a900463ffffffff1663ffffffff16145b156129845761290582612c6f565b866001836129139190613509565b815481106129245761292361353d565b5b9060005260206000200160000160046101000a8154817bffffffffffffffffffffffffffffffffffffffffffffffffffffffff02191690837bffffffffffffffffffffffffffffffffffffffffffffffffffffffff160217905550612a74565b85604051806040016040528061299943611d37565b63ffffffff1681526020016129ad85612c6f565b7bffffffffffffffffffffffffffffffffffffffffffffffffffffffff168152509080600181540180825580915050600190039060005260206000200160009091909190915060008201518160000160006101000a81548163ffffffff021916908363ffffffff16021790555060208201518160000160046101000a8154817bffffffffffffffffffffffffffffffffffffffffffffffffffffffff02191690837bffffffffffffffffffffffffffffffffffffffffffffffffffffffff16021790555050505b50935093915050565b600073ffffffffffffffffffffffffffffffffffffffff168273ffffffffffffffffffffffffffffffffffffffff161415612aed576040517f08c379a0000000000000000000000000000000000000000000000000000000008152600401612ae490614301565b60405180910390fd5b612af982600083611fa4565b60008060008473ffffffffffffffffffffffffffffffffffffffff1673ffffffffffffffffffffffffffffffffffffffff16815260200190815260200160002054905081811015612b7f576040517f08c379a0000000000000000000000000000000000000000000000000000000008152600401612b7690614393565b60405180910390fd5b8181036000808573ffffffffffffffffffffffffffffffffffffffff1673ffffffffffffffffffffffffffffffffffffffff168152602001908152602001600020819055508160026000828254612bd69190613509565b92505081905550600073ffffffffffffffffffffffffffffffffffffffff168373ffffffffffffffffffffffffffffffffffffffff167fddf252ad1be2c89b69c2b068fc378daa952ba7f163c4a11628f55a4df523b3ef84604051612c3b9190612ef1565b60405180910390a3612c4f83600084611ffc565b505050565b60008183612c629190613509565b905092915050565b505050565b60007bffffffffffffffffffffffffffffffffffffffffffffffffffffffff8016821115612cd2576040517f08c379a0000000000000000000000000000000000000000000000000000000008152600401612cc990614425565b60405180910390fd5b819050919050565b6040518060400160405280600063ffffffff16815260200160007bffffffffffffffffffffffffffffffffffffffffffffffffffffffff1681525090565b600081519050919050565b600082825260208201905092915050565b60005b83811015612d52578082015181840152602081019050612d37565b83811115612d61576000848401525b50505050565b6000601f19601f8301169050919050565b6000612d8382612d18565b612d8d8185612d23565b9350612d9d818560208601612d34565b612da681612d67565b840191505092915050565b60006020820190508181036000830152612dcb8184612d78565b905092915050565b600080fd5b600073ffffffffffffffffffffffffffffffffffffffff82169050919050565b6000612e0382612dd8565b9050919050565b612e1381612df8565b8114612e1e57600080fd5b50565b600081359050612e3081612e0a565b92915050565b6000819050919050565b612e4981612e36565b8114612e5457600080fd5b50565b600081359050612e6681612e40565b92915050565b60008060408385031215612e8357612e82612dd3565b5b6000612e9185828601612e21565b9250506020612ea285828601612e57565b9150509250929050565b60008115159050919050565b612ec181612eac565b82525050565b6000602082019050612edc6000830184612eb8565b92915050565b612eeb81612e36565b82525050565b6000602082019050612f066000830184612ee2565b92915050565b600080600060608486031215612f2557612f24612dd3565b5b6000612f3386828701612e21565b9350506020612f4486828701612e21565b9250506040612f5586828701612e57565b9150509250925092565b600060ff82169050919050565b612f7581612f5f565b82525050565b6000602082019050612f906000830184612f6c565b92915050565b6000819050919050565b612fa981612f96565b82525050565b6000602082019050612fc46000830184612fa0565b92915050565b600060208284031215612fe057612fdf612dd3565b5b6000612fee84828501612e57565b91505092915050565b60006020828403121561300d5761300c612dd3565b5b600061301b84828501612e21565b91505092915050565b61302d81612df8565b82525050565b60006020820190506130486000830184613024565b92915050565b600063ffffffff82169050919050565b6130678161304e565b82525050565b6000602082019050613082600083018461305e565b92915050565b61309181612f5f565b811461309c57600080fd5b50565b6000813590506130ae81613088565b92915050565b6130bd81612f96565b81146130c857600080fd5b50565b6000813590506130da816130b4565b92915050565b60008060008060008060c087890312156130fd576130fc612dd3565b5b600061310b89828a01612e21565b965050602061311c89828a01612e57565b955050604061312d89828a01612e57565b945050606061313e89828a0161309f565b935050608061314f89828a016130cb565b92505060a061316089828a016130cb565b9150509295509295509295565b600080600080600080600060e0888a03121561318c5761318b612dd3565b5b600061319a8a828b01612e21565b97505060206131ab8a828b01612e21565b96505060406131bc8a828b01612e57565b95505060606131cd8a828b01612e57565b94505060806131de8a828b0161309f565b93505060a06131ef8a828b016130cb565b92505060c06132008a828b016130cb565b91505092959891949750929550565b6000806040838503121561322657613225612dd3565b5b600061323485828601612e21565b925050602061324585828601612e21565b9150509250929050565b6132588161304e565b811461326357600080fd5b50565b6000813590506132758161324f565b92915050565b6000806040838503121561329257613291612dd3565b5b60006132a085828601612e21565b92505060206132b185828601613266565b9150509250929050565b6132c48161304e565b82525050565b60007bffffffffffffffffffffffffffffffffffffffffffffffffffffffff82169050919050565b6132fb816132ca565b82525050565b60408201600082015161331760008501826132bb565b50602082015161332a60208501826132f2565b50505050565b60006040820190506133456000830184613301565b92915050565b7f4e487b7100000000000000000000000000000000000000000000000000000000600052602260045260246000fd5b6000600282049050600182168061339257607f821691505b602082108114156133a6576133a561334b565b5b50919050565b7f4e487b7100000000000000000000000000000000000000000000000000000000600052601160045260246000fd5b60006133e682612e36565b91506133f183612e36565b9250827fffffffffffffffffffffffffffffffffffffffffffffffffffffffffffffffff03821115613426576134256133ac565b5b828201905092915050565b7f4552433230566f7465733a20626c6f636b206e6f7420796574206d696e656400600082015250565b6000613467601f83612d23565b915061347282613431565b602082019050919050565b600060208201905081810360008301526134968161345a565b9050919050565b7f4f776e61626c653a2063616c6c6572206973206e6f7420746865206f776e6572600082015250565b60006134d3602083612d23565b91506134de8261349d565b602082019050919050565b60006020820190508181036000830152613502816134c6565b9050919050565b600061351482612e36565b915061351f83612e36565b925082821015613532576135316133ac565b5b828203905092915050565b7f4e487b7100000000000000000000000000000000000000000000000000000000600052603260045260246000fd5b7f45524332303a2064656372656173656420616c6c6f77616e63652062656c6f7760008201527f207a65726f000000000000000000000000000000000000000000000000000000602082015250565b60006135c8602583612d23565b91506135d38261356c565b604082019050919050565b600060208201905081810360008301526135f7816135bb565b9050919050565b7f4552433230566f7465733a207369676e61747572652065787069726564000000600082015250565b6000613634601d83612d23565b915061363f826135fe565b602082019050919050565b6000602082019050818103600083015261366381613627565b9050919050565b600060808201905061367f6000830187612fa0565b61368c6020830186613024565b6136996040830185612ee2565b6136a66060830184612ee2565b95945050505050565b7f4552433230566f7465733a20696e76616c6964206e6f6e636500000000000000600082015250565b60006136e5601983612d23565b91506136f0826136af565b602082019050919050565b60006020820190508181036000830152613714816136d8565b9050919050565b7f45524332305065726d69743a206578706972656420646561646c696e65000000600082015250565b6000613751601d83612d23565b915061375c8261371b565b602082019050919050565b6000602082019050818103600083015261378081613744565b9050919050565b600060c08201905061379c6000830189612fa0565b6137a96020830188613024565b6137b66040830187613024565b6137c36060830186612ee2565b6137d06080830185612ee2565b6137dd60a0830184612ee2565b979650505050505050565b7f45524332305065726d69743a20696e76616c6964207369676e61747572650000600082015250565b600061381e601e83612d23565b9150613829826137e8565b602082019050919050565b6000602082019050818103600083015261384d81613811565b9050919050565b7f4f776e61626c653a206e6577206f776e657220697320746865207a65726f206160008201527f6464726573730000000000000000000000000000000000000000000000000000602082015250565b60006138b0602683612d23565b91506138bb82613854565b604082019050919050565b600060208201905081810360008301526138df816138a3565b9050919050565b7f45524332303a20617070726f76652066726f6d20746865207a65726f2061646460008201527f7265737300000000000000000000000000000000000000000000000000000000602082015250565b6000613942602483612d23565b915061394d826138e6565b604082019050919050565b6000602082019050818103600083015261397181613935565b9050919050565b7f45524332303a20617070726f766520746f20746865207a65726f20616464726560008201527f7373000000000000000000000000000000000000000000000000000000000000602082015250565b60006139d4602283612d23565b91506139df82613978565b604082019050919050565b60006020820190508181036000830152613a03816139c7565b9050919050565b7f45524332303a20696e73756666696369656e7420616c6c6f77616e6365000000600082015250565b6000613a40601d83612d23565b9150613a4b82613a0a565b602082019050919050565b60006020820190508181036000830152613a6f81613a33565b9050919050565b7f45524332303a207472616e736665722066726f6d20746865207a65726f20616460008201527f6472657373000000000000000000000000000000000000000000000000000000602082015250565b6000613ad2602583612d23565b9150613add82613a76565b604082019050919050565b60006020820190508181036000830152613b0181613ac5565b9050919050565b7f45524332303a207472616e7366657220746f20746865207a65726f206164647260008201527f6573730000000000000000000000000000000000000000000000000000000000602082015250565b6000613b64602383612d23565b9150613b6f82613b08565b604082019050919050565b60006020820190508181036000830152613b9381613b57565b9050919050565b7f45524332303a207472616e7366657220616d6f756e742065786365656473206260008201527f616c616e63650000000000000000000000000000000000000000000000000000602082015250565b6000613bf6602683612d23565b9150613c0182613b9a565b604082019050919050565b60006020820190508181036000830152613c2581613be9565b9050919050565b7f5061757361626c653a206e6f7420706175736564000000000000000000000000600082015250565b6000613c62601483612d23565b9150613c6d82613c2c565b602082019050919050565b60006020820190508181036000830152613c9181613c55565b9050919050565b7f53616665436173743a2076616c756520646f65736e27742066697420696e203360008201527f3220626974730000000000000000000000000000000000000000000000000000602082015250565b6000613cf4602683612d23565b9150613cff82613c98565b604082019050919050565b60006020820190508181036000830152613d2381613ce7565b9050919050565b7f5061757361626c653a2070617573656400000000000000000000000000000000600082015250565b6000613d60601083612d23565b9150613d6b82613d2a565b602082019050919050565b60006020820190508181036000830152613d8f81613d53565b9050919050565b600060a082019050613dab6000830188612fa0565b613db86020830187612fa0565b613dc56040830186612fa0565b613dd26060830185612ee2565b613ddf6080830184613024565b9695505050505050565b7f4e487b7100000000000000000000000000000000000000000000000000000000600052601260045260246000fd5b6000613e2382612e36565b9150613e2e83612e36565b925082613e3e57613e3d613de9565b5b828204905092915050565b7f4552433230566f7465733a20746f74616c20737570706c79207269736b73206f60008201527f766572666c6f77696e6720766f74657300000000000000000000000000000000602082015250565b6000613ea5603083612d23565b9150613eb082613e49565b604082019050919050565b60006020820190508181036000830152613ed481613e98565b9050919050565b6000604082019050613ef06000830185612ee2565b613efd6020830184612ee2565b9392505050565b600081905092915050565b7f1901000000000000000000000000000000000000000000000000000000000000600082015250565b6000613f45600283613f04565b9150613f5082613f0f565b600282019050919050565b6000819050919050565b613f76613f7182612f96565b613f5b565b82525050565b6000613f8782613f38565b9150613f938285613f65565b602082019150613fa38284613f65565b6020820191508190509392505050565b6000608082019050613fc86000830187612fa0565b613fd56020830186612f6c565b613fe26040830185612fa0565b613fef6060830184612fa0565b95945050505050565b7f4e487b7100000000000000000000000000000000000000000000000000000000600052602160045260246000fd5b7f45434453413a20696e76616c6964207369676e61747572650000000000000000600082015250565b600061405d601883612d23565b915061406882614027565b602082019050919050565b6000602082019050818103600083015261408c81614050565b9050919050565b7f45434453413a20696e76616c6964207369676e6174757265206c656e67746800600082015250565b60006140c9601f83612d23565b91506140d482614093565b602082019050919050565b600060208201905081810360008301526140f8816140bc565b9050919050565b7f45434453413a20696e76616c6964207369676e6174757265202773272076616c60008201527f7565000000000000000000000000000000000000000000000000000000000000602082015250565b600061415b602283612d23565b9150614166826140ff565b604082019050919050565b6000602082019050818103600083015261418a8161414e565b9050919050565b7f45434453413a20696e76616c6964207369676e6174757265202776272076616c60008201527f7565000000000000000000000000000000000000000000000000000000000000602082015250565b60006141ed602283612d23565b91506141f882614191565b604082019050919050565b6000602082019050818103600083015261421c816141e0565b9050919050565b7f45524332303a206d696e7420746f20746865207a65726f206164647265737300600082015250565b6000614259601f83612d23565b915061426482614223565b602082019050919050565b600060208201905081810360008301526142888161424c565b9050919050565b7f45524332303a206275726e2066726f6d20746865207a65726f2061646472657360008201527f7300000000000000000000000000000000000000000000000000000000000000602082015250565b60006142eb602183612d23565b91506142f68261428f565b604082019050919050565b6000602082019050818103600083015261431a816142de565b9050919050565b7f45524332303a206275726e20616d6f756e7420657863656564732062616c616e60008201527f6365000000000000000000000000000000000000000000000000000000000000602082015250565b600061437d602283612d23565b915061438882614321565b604082019050919050565b600060208201905081810360008301526143ac81614370565b9050919050565b7f53616665436173743a2076616c756520646f65736e27742066697420696e203260008201527f3234206269747300000000000000000000000000000000000000000000000000602082015250565b600061440f602783612d23565b915061441a826143b3565b604082019050919050565b6000602082019050818103600083015261443e81614402565b905091905056fea2646970667358221220f25873b1bcb05bd85438fad79de2824aa35ef569c922f9edee05aa7efee1ee0d64736f6c634300080a0033",
  "immutableReferences": {
    "1674": [
      {
        "length": 32,
        "start": 4303
      }
    ],
    "2563": [
      {
        "length": 32,
        "start": 6588
      }
    ],
    "2565": [
      {
        "length": 32,
        "start": 6547
      }
    ],
    "2567": [
      {
        "length": 32,
        "start": 6461
      }
    ],
    "2569": [
      {
        "length": 32,
        "start": 6664
      }
    ],
    "2571": [
      {
        "length": 32,
        "start": 6697
      }
    ],
    "2573": [
      {
        "length": 32,
        "start": 6631
      }
    ]
  },
  "source": "// SPDX-License-Identifier: MIT\npragma solidity ^0.8.10;\n\nimport \"@openzeppelin/contracts/token/ERC20/ERC20.sol\";\nimport \"@openzeppelin/contracts/token/ERC20/extensions/ERC20Burnable.sol\";\nimport \"@openzeppelin/contracts/security/Pausable.sol\";\nimport \"@openzeppelin/contracts/access/Ownable.sol\";\nimport \"@openzeppelin/contracts/token/ERC20/extensions/draft-ERC20Permit.sol\";\nimport \"@openzeppelin/contracts/token/ERC20/extensions/ERC20Votes.sol\";\n\ncontract Beta is ERC20, ERC20Burnable, Pausable, Ownable, ERC20Permit, ERC20Votes {\n  constructor() ERC20(\"Test Beta\", \"BETA\") ERC20Permit(\"Test Beta\") {}\n\n  function pause() public onlyOwner {\n    _pause();\n  }\n\n  function unpause() public onlyOwner {\n    _unpause();\n  }\n\n  function mint(address to, uint256 amount) public onlyOwner {\n    _mint(to, amount);\n  }\n\n  function _beforeTokenTransfer(address from, address to, uint256 amount) internal whenNotPaused override {\n    super._beforeTokenTransfer(from, to, amount);\n  }\n\n  function _afterTokenTransfer(address from, address to, uint256 amount) internal override(ERC20, ERC20Votes) {\n    super._afterTokenTransfer(from, to, amount);\n  }\n\n  function _mint(address to, uint256 amount) internal override(ERC20, ERC20Votes) {\n    super._mint(to, amount);\n  }\n\n  function _burn(address account, uint256 amount) internal override(ERC20, ERC20Votes) {\n    super._burn(account, amount);\n  }\n\n}",
  "sourcePath": "D:\\DApp\\beta_coin\\contracts\\Beta.sol",
  "compiler": {
    "name": "solc",
    "version": "0.8.10+commit.fc410830.Emscripten.clang"
  },
  "schemaVersion": "3.4.4",
  "updatedAt": "2022-02-16T12:24:22.049Z",
  "devdoc": {
    "kind": "dev",
    "methods": {
      "DOMAIN_SEPARATOR()": {
        "details": "See {IERC20Permit-DOMAIN_SEPARATOR}."
      },
      "allowance(address,address)": {
        "details": "See {IERC20-allowance}."
      },
      "approve(address,uint256)": {
        "details": "See {IERC20-approve}. NOTE: If `amount` is the maximum `uint256`, the allowance is not updated on `transferFrom`. This is semantically equivalent to an infinite approval. Requirements: - `spender` cannot be the zero address."
      },
      "balanceOf(address)": {
        "details": "See {IERC20-balanceOf}."
      },
      "burn(uint256)": {
        "details": "Destroys `amount` tokens from the caller. See {ERC20-_burn}."
      },
      "burnFrom(address,uint256)": {
        "details": "Destroys `amount` tokens from `account`, deducting from the caller's allowance. See {ERC20-_burn} and {ERC20-allowance}. Requirements: - the caller must have allowance for ``accounts``'s tokens of at least `amount`."
      },
      "checkpoints(address,uint32)": {
        "details": "Get the `pos`-th checkpoint for `account`."
      },
      "decimals()": {
        "details": "Returns the number of decimals used to get its user representation. For example, if `decimals` equals `2`, a balance of `505` tokens should be displayed to a user as `5.05` (`505 / 10 ** 2`). Tokens usually opt for a value of 18, imitating the relationship between Ether and Wei. This is the value {ERC20} uses, unless this function is overridden; NOTE: This information is only used for _display_ purposes: it in no way affects any of the arithmetic of the contract, including {IERC20-balanceOf} and {IERC20-transfer}."
      },
      "decreaseAllowance(address,uint256)": {
        "details": "Atomically decreases the allowance granted to `spender` by the caller. This is an alternative to {approve} that can be used as a mitigation for problems described in {IERC20-approve}. Emits an {Approval} event indicating the updated allowance. Requirements: - `spender` cannot be the zero address. - `spender` must have allowance for the caller of at least `subtractedValue`."
      },
      "delegate(address)": {
        "details": "Delegate votes from the sender to `delegatee`."
      },
      "delegateBySig(address,uint256,uint256,uint8,bytes32,bytes32)": {
        "details": "Delegates votes from signer to `delegatee`"
      },
      "delegates(address)": {
        "details": "Get the address `account` is currently delegating to."
      },
      "getPastTotalSupply(uint256)": {
        "details": "Retrieve the `totalSupply` at the end of `blockNumber`. Note, this value is the sum of all balances. It is but NOT the sum of all the delegated votes! Requirements: - `blockNumber` must have been already mined"
      },
      "getPastVotes(address,uint256)": {
        "details": "Retrieve the number of votes for `account` at the end of `blockNumber`. Requirements: - `blockNumber` must have been already mined"
      },
      "getVotes(address)": {
        "details": "Gets the current votes balance for `account`"
      },
      "increaseAllowance(address,uint256)": {
        "details": "Atomically increases the allowance granted to `spender` by the caller. This is an alternative to {approve} that can be used as a mitigation for problems described in {IERC20-approve}. Emits an {Approval} event indicating the updated allowance. Requirements: - `spender` cannot be the zero address."
      },
      "name()": {
        "details": "Returns the name of the token."
      },
      "nonces(address)": {
        "details": "See {IERC20Permit-nonces}."
      },
      "numCheckpoints(address)": {
        "details": "Get number of checkpoints for `account`."
      },
      "owner()": {
        "details": "Returns the address of the current owner."
      },
      "paused()": {
        "details": "Returns true if the contract is paused, and false otherwise."
      },
      "permit(address,address,uint256,uint256,uint8,bytes32,bytes32)": {
        "details": "See {IERC20Permit-permit}."
      },
      "renounceOwnership()": {
        "details": "Leaves the contract without owner. It will not be possible to call `onlyOwner` functions anymore. Can only be called by the current owner. NOTE: Renouncing ownership will leave the contract without an owner, thereby removing any functionality that is only available to the owner."
      },
      "symbol()": {
        "details": "Returns the symbol of the token, usually a shorter version of the name."
      },
      "totalSupply()": {
        "details": "See {IERC20-totalSupply}."
      },
      "transfer(address,uint256)": {
        "details": "See {IERC20-transfer}. Requirements: - `to` cannot be the zero address. - the caller must have a balance of at least `amount`."
      },
      "transferFrom(address,address,uint256)": {
        "details": "See {IERC20-transferFrom}. Emits an {Approval} event indicating the updated allowance. This is not required by the EIP. See the note at the beginning of {ERC20}. NOTE: Does not update the allowance if the current allowance is the maximum `uint256`. Requirements: - `from` and `to` cannot be the zero address. - `from` must have a balance of at least `amount`. - the caller must have allowance for ``from``'s tokens of at least `amount`."
      },
      "transferOwnership(address)": {
        "details": "Transfers ownership of the contract to a new account (`newOwner`). Can only be called by the current owner."
      }
    },
    "version": 1
  },
  "userdoc": {
    "kind": "user",
    "methods": {},
    "version": 1
  }
}